:100000000C9462000C94FE020C94D7020C948A00AB
:100010000C948A000C948A000C948A000C9425039A
:100020000C948A000C948A000C948A000C948A0028
:100030000C948A000C948A000C948A000C948A0018
:100040000C948D020C948A000C94E8010C94C2016B
:100050000C948A000C948A000C948A000C948A00F8
:100060000C948A000C948A000000000023002600F3
:10007000290000000000240027002A0000000000E2
:10008000250028002B0004040404040404040202D4
:100090000202020203030303030301020408102007
:1000A0004080010204081020010204081020000012
:1000B0000008000201000003040700000000000027
:1000C0000000520C11241FBECFEFD8E0DEBFCDBF21
:1000D00011E0A0E0B1E0E6E5FEE102C005900D927E
:1000E000A831B107D9F722E0A8E1B1E001C01D9223
:1000F000A23AB207E1F710E0C2E6D0E004C02197CF
:10010000FE010E940F0FC136D107C9F70E94C0043B
:100110000C94290F0C940000CF92DF92EF92FF9283
:100120000F931F93CF93DF936C017A018B01C0E093
:10013000D0E0CE15DF0589F0D8016D918D01D60193
:10014000ED91FC910190F081E02DC6010995892B7C
:1001500011F47E0102C02196ECCFC701DF91CF914F
:100160001F910F91FF90EF90DF90CF900895089529
:1001700080E090E00895FC01538D448D252F30E000
:10018000842F90E0821B930B541710F0CF960895A4
:1001900001970895FC01918D828D981761F0828DF1
:1001A000DF01A80FB11D5D968C91928D9F5F9F73AB
:1001B000928F90E008958FEF9FEF0895FC01918D4D
:1001C000828D981731F0828DE80FF11D858D90E0BA
:1001D00008958FEF9FEF0895FC01918D228D892F57
:1001E00090E0805C9F4F821B91098F73992708953F
:1001F00082E391E00E94EC0021E0892B09F420E0E9
:10020000822F0895FC01848DDF01A80FB11DA35A30
:10021000BF4F2C91848D90E001968F739927848F26
:10022000A689B7892C93A089B1898C9180648C931D
:10023000938D848D981306C00288F389E02D808108
:100240008F7D80830895EF92FF920F931F93CF933A
:10025000DF93EC0181E0888F9B8D8C8D981305C016
:10026000E889F989808185FD24C0F62E0B8D10E088
:100270000F5F1F4F0F731127E02E8C8DE8120CC0FB
:100280000FB607FCFACFE889F989808185FFF5CFA1
:10029000CE010E940201F1CF8B8DFE01E80FF11D0E
:1002A000E35AFF4FF0820B8FEA89FB8980818062DD
:1002B00007C0EE89FF896083E889F98980818064BD
:1002C000808381E090E0DF91CF911F910F91FF90AB
:1002D000EF900895CF93DF93EC01888D8823C9F0C8
:1002E000EA89FB89808185FD05C0A889B9898C913F
:1002F00086FD0FC00FB607FCF5CF808185FFF2CFDA
:10030000A889B9898C9185FFEDCFCE010E940201A9
:10031000E7CFDF91CF91089580E090E0892B29F01D
:100320000E94F80081110C9400000895833081F040
:1003300028F4813099F08230A1F008958730A9F037
:100340008830B9F08430D1F4809180008F7D03C073
:10035000809180008F7780938000089584B58F7797
:1003600002C084B58F7D84BD08958091B0008F77E1
:1003700003C08091B0008F7D8093B00008950895F0
:100380000E94240F1F920F920FB60F9211242F93E9
:100390003F934F935F936F937F938F939F93AF930D
:1003A000BF93EF93FF9382E391E00E940201FF91DC
:1003B000EF91BF91AF919F918F917F916F915F91DD
:1003C0004F913F912F910F900FBE0F901F90189556
:1003D0001F920F920FB60F9211242F938F939F931A
:1003E000EF93FF93E0914201F09143018081E0910E
:1003F0004801F091490182FD12C0908180914B012A
:100400008F5F8F7320914C01821751F0E0914B0167
:10041000F0E0EE5CFE4F958F80934B0101C0808130
:10042000FF91EF919F918F912F910F900FBE0F90A1
:100430001F9018951F93CF93DF93282F30E0F90179
:10044000E255FF4F8491F901E656FF4FD491F9012F
:10045000EA57FF4FC491CC23C9F0162F81110E9497
:100460009601EC2FF0E0EE0FFF1FE458FF4FA5912F
:10047000B4918FB7F894111105C09C91ED2FE095C0
:10048000E92302C0EC91ED2BEC938FBFDF91CF916C
:100490001F91089560E088E00E941A0210921801EE
:1004A0000895CF93DF9390E0FC01E656FF4F24912F
:1004B000FC01EA57FF4F8491882361F190E0880F97
:1004C000991FFC01EE58FF4FC591D491FC01E458EF
:1004D000FF4FA591B491611109C09FB7F89488812D
:1004E000209582238883EC912E230BC0623061F427
:1004F0009FB7F8943881822F809583238883EC916D
:100500002E2B2C939FBF06C08FB7F894E8812E2B1B
:1005100028838FBFDF91CF9108951F920F920FB65E
:100520000F9211242F933F938F939F93AF93BF9379
:1005300080911E0190911F01A0912001B091210195
:1005400030911D0123E0230F2D3720F40196A11DCA
:10055000B11D05C026E8230F0296A11DB11D2093F1
:100560001D0180931E0190931F01A0932001B09361
:1005700021018091190190911A01A0911B01B09164
:100580001C010196A11DB11D8093190190931A01C0
:10059000A0931B01B0931C01BF91AF919F918F91CC
:1005A0003F912F910F900FBE0F901F9018951F92A3
:1005B0000F920FB60F9211242F933F934F935F9397
:1005C0006F937F938F939F93AF93BF93EF93FF931B
:1005D000E0910201F09103010995FF91EF91BF9124
:1005E000AF919F918F917F916F915F914F913F91CB
:1005F0002F910F900FBE0F901F9018951F920F9282
:100600000FB60F9211242F933F934F935F936F93E5
:100610007F938F939F93AF93BF93EF93FF93E0915B
:100620000001F09101010995FF91EF91BF91AF9108
:100630009F918F917F916F915F914F913F912F91FA
:100640000F900FBE0F901F9018951F920F920FB62C
:100650000F9211242F933F934F935F936F937F9348
:100660008F939F93AF93BF93CF93DF93EF93FF93BA
:100670002091D00130E0F901E255FF4F8491F9015A
:10068000E656FF4FD491F901EA57FF4FC491CC23AE
:10069000A1F081110E949601EC2FF0E0EE0FFF1FF8
:1006A000E859FF4FA591B491EC91ED2331E020E0A2
:1006B00009F430E0832F922F02C080E090E0209177
:1006C000D4013091D5012F5F3F4F3093D501209356
:1006D000D4012091D301253618F026E02093CF01D4
:1006E0002091CF012430D9F128F4223069F0233051
:1006F000D9F060C0253009F453C0263009F05AC043
:1007000021E02093A00253C0009709F053C020912C
:10071000D4013091D5012436310508F443C010923C
:10072000A0021092D3011DC08130910509F042C092
:10073000E091D30121E02E0F2093D301F0E020912E
:10074000D4013091D501EE0FFF1FE153FE4F3087EA
:1007500027831092D5011092D40124E029C000977C
:10076000B9F4E091D30121E02E0F2093D301F0E002
:100770002091D4013091D501EE0FFF1FE153FE4FC0
:10078000308727831092D5011092D40123E010C046
:100790002091D4013091D5012536310558F007C09C
:1007A000009741F41092D5011092D40103C025E0C6
:1007B0002093CF012091D2012223B9F0892B51F44B
:1007C0008091D101882321F08091D10161E009C09D
:1007D0002D9A0BC08091D101882331F08091D101F5
:1007E00060E00E941A0201C02D98FF91EF91DF9105
:1007F000CF91BF91AF919F918F917F916F915F91B9
:100800004F913F912F910F900FBE0F901F90189511
:10081000CF92DF92EF92FF92CF93DF93EC01072EFE
:10082000000C880B990B0E94A00D6B017C0120E04D
:1008300030E040E45FE30E94500E20E030E048E406
:1008400052E40E94F60C0E94680DC617D707D4F038
:1008500020E030E040EA5FE3C701B6010E94500E9D
:1008600020E030E048E452E40E94F60C20E030E062
:1008700040E85FE30E94850C0E94680D21E06C1740
:100880007D070CF420E0822F90E0DF91CF91FF9064
:10089000EF90DF90CF9008958F929F92AF92BF928A
:1008A000CF92DF92EF92FF920F931F93CF93DF933C
:1008B000FC01C081D18120912E0130912F01C217FE
:1008C000D3070CF04BC09E01220F331FE0912C0187
:1008D000F0912D01E20FF31F80809180C170DD2720
:1008E000F1E0CF27209719F404E610E002C00CE9EC
:1008F0001FEF7A015B016C01040F151FB801C401E1
:100900000E940804892B99F40E0D1F1DB801C40123
:100910000E940804892B71F4B8016E0D7F1DC4017B
:100920000E940804892BE9F023E030E005C021E0B3
:1009300030E002C022E030E0F50180819181019633
:10094000821793073CF0F50111821082F601808135
:100950009181019691838083CE0105C081E090E072
:1009600002C08FEF9FEFDF91CF911F910F91FF900A
:10097000EF90DF90CF90BF90AF909F908F900895B1
:10098000CF93DF93CDB7DEB72C970FB6F894DEBFC9
:100990000FBECDBF789484B5826084BD84B581607C
:1009A00084BD85B5826085BD85B5816085BD80913A
:1009B0006E00816080936E001092810080918100B2
:1009C00082608093810080918100816080938100AA
:1009D000809180008160809380008091B10084606C
:1009E0008093B1008091B00081608093B0008091CD
:1009F0007A00846080937A0080917A00826080938C
:100A00007A0080917A00816080937A0080917A00E8
:100A1000806880937A001092C100E0914201F091C9
:100A2000430182E08083E0913E01F0913F0110821A
:100A3000E0914001F09141019FEC908310924A01B6
:100A4000E0914601F091470196E09083E0914401E6
:100A5000F0914501908190619083E0914401F09183
:100A60004501908198609083E0914401F0914501A7
:100A7000908190689083E0914401F09145019081CC
:100A80009F7D9083F8948093B0008093B10094E6AA
:100A90009093B3001092B20080937000789480938A
:100AA000CF011092D3018091D00160E00E945102E9
:100AB00060E08BE00E94510260E082E00E945102FF
:100AC00061E088E00E9451028AE492E09093010183
:100AD0008093000180916900836080936900E89AA7
:100AE00010E2212E312C44244A94542C320126ED5C
:100AF00031E030932D0120932C018091D30190E0BF
:100B000090932F0180932E018091A00290E090930A
:100B10003101809330018091CF01853009F04FC2BF
:100B20008091D8019091D901885891098D3591050E
:100B300088F48091D301843041F48091DA0190915E
:100B4000DB018097479708F43DC28091D30184343C
:100B500008F0CDC18091D3018A3108F44FC0809153
:100B6000D6019091D701843F914068F410922B01F7
:100B700010922A014092260150922701609228018A
:100B80007092290159C08091D8019091D90185971F
:100B90004B97A0F5ECEDF1E082E090E0C12CD12C78
:100BA0007601AC014F5F5F4F2091D30130E04217D7
:100BB00053075CF4DF0112972D913C9127503109C6
:100BC0002730310508F422C2CA010197959587950F
:100BD00090932B0180932A010C972CF410922B01F7
:100BE00010922A010BC0C0922601D0922701E092F8
:100BF0002801F092290184E090E041C38091D30163
:100C00008A3108F44CC08091D6019091D70180328E
:100C1000934008F4ABCF8091D8019091D901C69749
:100C2000869708F410C23BC0C0922601D0922701DB
:100C3000E0922801F09229018BE090E020C320810E
:100C40003181255231092B31310508F00CC2CC0C11
:100C5000DD1CEE1CFF1C6894C0F802963496AC01B3
:100C60004F5F5F4F2091D30130E04217530754F498
:100C7000DF0112972D913C912C5031092B30310519
:100C8000F0F2CA0101979595879590932B01809377
:100C90002A010C974CF610922B0110922A01809198
:100CA000D3018232E8F18091D8019091D901069761
:100CB0000797B0F5ECEDF1E082E090E0C12CD12C8B
:100CC00076019C012F5F3F4F4091D30150E02417E4
:100CD00035076CF4DF0112974D915C9111974E51DD
:100CE00051094731510508F4E2C1CAC1C901019750
:100CF0009595879590932B0180932A0140972CF42A
:100D000010922B0110922A010BC0C0922601D092A2
:100D10002701E0922801F09229018CE090E0AFC217
:100D20001C821B8221E030E03A8329838091D30129
:100D30008D3008F46BC049E753E0BE016D5F7F4F13
:100D4000CE0101960E944C04892B09F05FC049E74F
:100D500053E0BE016D5F7F4FCE0101960E944C04AF
:100D6000019709F053C049E753E0BE016D5F7F4F23
:100D7000CE0101960E944C04892B09F047C0812CBA
:100D8000912C540100E010E08091D30190E0298182
:100D90003A81281739075CF549E753E0BE016D5FDA
:100DA0007F4FCE0101960E944C047C0149E753E03D
:100DB000BE016D5F7F4FCE0101960E944C0431E071
:100DC000E316F10449F4892B09F5880C991CAA1C37
:100DD000BB1C689480F808C0EF28C1F40197B1F4F7
:100DE000880C991CAA1CBB1C0F5F1F4FCDCF109302
:100DF0002B0100932A018092260190922701A09254
:100E00002801B092290181E090E039C21C821B8246
:100E1000A1E0B0E0BA83A98380912E0190912F01C7
:100E2000181619060CF058C0E0912C01F0912D0114
:100E300082E090E09A8389838281938189974E979B
:100E400008F04AC023E030E03A8329838481958109
:100E50000B970A9708F040C04CEB51E0BE016D5F64
:100E60007F4FCE0101960E944C04892BA9F54CEBD3
:100E700051E0BE016D5F7F4FCE0101960E944C0490
:100E8000019751F5812C912C540100E010E029814B
:100E90003A8180912E0190912F01281739070CF08B
:100EA00043C14CEB51E0BE016D5F7F4FCE01019617
:100EB0000E944C046C010330110509F0FFC04CEB9B
:100EC00051E0BE016D5F7F4FCE0101960E944C0440
:100ED000C816D90609F4F2C0E0912C01F0912D0159
:100EE00082819381C697869708F42DC1DCC18091D9
:100EF000DA019091DB01825491098E9708F02ACE95
:100F000080E090E040E050E0BA01FC01E452FE4F86
:100F100020813181295031092930310508F01ACE5C
:100F2000FC01E252FE4F20813181275131092231EB
:100F3000310508F05EC0440F551F661F771F4160E2
:100F400004968038910509F730922B0120922A01EE
:100F50004093260150932701609328017093290143
:100F6000A3E0B0E0B0932301A09322018091180187
:100F700081110EC08091260190912701A091280136
:100F8000B091290185309A4FAE4FB14009F47CC130
:100F900080911801882371F080912601909127019A
:100FA000A0912801B091290185309A4FAE4FB140F0
:100FB00009F472C182E08093CF011092D3010E94A4
:100FC0008C0195CD8091DC019091DD010997099705
:100FD00008F0BBCD10922B0110922A0140922601FD
:100FE00050922701609228017092290183E090E0DD
:100FF00046C120813181265031092730310508F062
:10100000A9CD440F551F661F771F9ACF20813181CC
:10101000235131092F30310578F0208131812A5058
:1010200031092930310508F0E9CDCC0CDD1CEE1C6E
:10103000FF1C02963496B5CDCC0CDD1CEE1CFF1CBB
:101040006894C0F8F6CF8091DA019091DB01C697E1
:10105000869708F024CEEEEDF1E083E090E0C12C1D
:10106000D12C7601FCCD208131812C5031092A30E0
:10107000310508F014CECC0CDD1CEE1CFF1CEDCDB0
:101080004D915C914C5051094B30510508F048CEC0
:10109000CC0CDD1CEE1CFF1C40815181349643506A
:1010A00051094530510508F021CE02960ACECC0CEC
:1010B000DD1CEE1CFF1C6894C0F8EECF4CEB51E039
:1010C000BE016D5F7F4FCE0101960E944C047C01F2
:1010D0000330110569F44CEB51E0BE016D5F7F4FA9
:1010E000CE0101960E944C04E816F90609F0F4CEF0
:1010F000C114D10459F4EA94EF2809F0EDCE880C1C
:10110000991CAA1CBB1C689480F80BC0CA94CD28FB
:1011100009F0E2CEEF2809F0DFCE880C991CAA1C5A
:10112000BB1C0F5F1F4FB3CE10932B0100932A01FE
:101130008092260190922701A0922801B092290165
:1011400082E090E09CC0848195814B97459708F0A0
:10115000AAC0DF0116966F0136ECC30ED11C20E049
:1011600030E040E050E060E070E080E090E0ED9042
:10117000FC90119719E0E11AF10818E0E116F1046A
:1011800008F091C01296ED90FC90139711E1E11ACE
:10119000F1081DE0E116F10420F501E00E94D80EEF
:1011A00021601496AC15BD0511F7209326013093EC
:1011B0002701409328015093290100E20E94F30E79
:1011C000209324013093250185E090E09093230142
:1011D0008093220180E390E090932B0180932A0179
:1011E000C5CE1296ED90FC90139714E0E11AF10829
:1011F00015E0E116F10408F056C001E00E94D80E97
:10120000D0CFA80142505109DA014D915C9149506B
:1012100051094830510508F0F4C0BC016F5F7F4FA1
:10122000D8014D915C91475051094730510508F064
:10123000EFC2220F331F216002960C5F1F4F4091B7
:10124000D30150E04450510984179507D4F2019717
:101250009595879590932B0180932A018A970CF49A
:10126000D0C0C901330FAA0BBB0B8093260190930A
:101270002701A0932801B093290189E090E0909381
:1012800023018093220172CE61E088E00E941A025D
:1012900081E0809318018ECE60E088E00E941A02FF
:1012A0001092180187CE8091D301893370F1828129
:1012B0009381895791098335910508F448C125C068
:1012C000D90112966D917C91139766517109613124
:1012D000710508F068C1D701C601880F991FAA1FC0
:1012E000BB1F6C017D016894C0F84E5F5F4F2C5F9F
:1012F0003F4F4B33510509F439C1D9016D917C91B0
:101300006A50710969307105D8F28091D301823237
:1013100031F4828193810A97099708F454C182813C
:1013200093818957910983359105D0F48091D30138
:101330008132B0F084819581CA97899788F49F01A2
:101340002A5F3F4FC12CD12C760143E050E0D901F8
:101350006D917C916A5071096930710508F455C12D
:10136000828193818C549109C59778F48091D3013F
:10137000843031F4848195818097479708F4ABC11C
:101380008091D301843408F08DC18091D3018634DB
:1013900060F1828193810C970B9708F4E5C125C019
:1013A000D90112966D917C9113976E517109673135
:1013B000710508F0F4C1D701C601880F991FAA1F53
:1013C000BB1F6C017D016894C0F84E5F5F4F2C5FBE
:1013D0003F4F4534510509F4F1C1D9016D917C911C
:1013E0006C5071096B307105D8F28091D30188354A
:1013F00040F082819381855891098B35910508F4DD
:10140000F8C18091D3018032E1F482819381069703
:101410000697B8F4848195810997099790F49F0104
:101420002A5F3F4FBF01625C7F4FC12CD12C7601F8
:10143000D9014D915C91465051094630510508F44F
:10144000F4C120912E0130912F0138872F8326304F
:1014500031050CF4AFCD8F010A5F1F4F83E090E0A0
:101460009E838D8395ECC92E9DE9D92E9CE1E92EB2
:1014700091E8F92ED8016D917C91F8013497A08004
:10148000B18080E090E00E949E0D69877A878B870B
:101490009C87B50180E090E00E949E0D4B015C01AD
:1014A0002DEC3CEC4CE45FE30E94500E9B01AC0140
:1014B00069857A858B859C850E94F10C87FD19C012
:1014C0002DEC3CEC4CE45FE369857A858B859C854B
:1014D0000E94500E9B01AC01C501B4010E94F10CA9
:1014E000E82F880FFF0BEE27FF0FEE1FFF27319627
:1014F00002C0E0E0F0E0A701960163E971E080E05E
:1015000091E00E94BD0E6F01FF0FEE08FF08C62696
:10151000D726E826F926ED81FE813196FE83ED83FC
:101520000E5F1F4F2F813885E217F30709F0A2CF16
:10153000C0922601D0922701E0922801F092290161
:1015400030922B0120922A018FEF9FEF98CE848159
:101550009581CA97899708F0D8CE9F012A5F3F4F9F
:10156000C12CD12C760143E050E0C7CE9F012A5810
:101570003F4FD9012D913C912A5031092930310535
:1015800008F0C3CE2CE130E030932B0120932A01E8
:10159000C0922601D0922701E0922801F092290101
:1015A0008AE090E06CCED90112966D917C911397F0
:1015B000665071096730710508F0A7CECC0CDD1CB0
:1015C000EE1CFF1C92CE2091D301CF01820F911D02
:1015D000820F911DDC0112978D919C910A970997BA
:1015E00008F09DCE10922B0110922A014092260104
:1015F000509227016092280170922901E6E0F0E004
:10160000F0932301E0932201B1CCD90112966D91A0
:101610007C911397665171096131710598F5D70175
:10162000C601880F991FAA1FBB1F6C017D0168941A
:10163000C0F84E5F5F4F2C5F3F4F4332510509F0BA
:1016400086CE9F012A5B3F4FD9012D913C912A50B4
:1016500031092930310508F083CEE0E1F0E0F09364
:101660002B01E0932A01C0922601D0922701E0923B
:101670002801F092290126E030E0309323012093E5
:10168000220174CCD90112966D917C91139766500A
:1016900071096730710508F063CECC0CDD1CEE1CBF
:1016A000FF1CC7CF8481958189549109C39708F0A5
:1016B0006CCE9F012A5F3F4FBF016A577F4FC12CFD
:1016C000D12C7601D9014D915C9149505109493095
:1016D0005105A0F05ACE868197810997099708F0A5
:1016E0004FCE10922B0110922A0140922601509267
:1016F00027016092280170922901D1C0D901129668
:101700004D915C9113974651510941315105E0F4D7
:10171000D701C601880F991FAA1FBB1F6C017D014D
:101720006894C0F82C5F3F4F2617370759F6309260
:101730002B0120922A01C0922601D0922701E0922B
:101740002801F0922901ABC0D90112964D915C910C
:101750001397465051094730510508F016CECC0C6E
:10176000DD1CEE1CFF1CDECF848195810997099753
:1017700008F03BCE868197818C974F9708F035CE45
:101780008085918589974D9708F02FCE9F01265F20
:101790003F4FC12CD12C760145E050E01ECE129671
:1017A0006D917C911397695071096930710508F04A
:1017B0001CCECC0CDD1CEE1CFF1C07CE9F01265757
:1017C0003F4FD9012D913C912C5031092B303105DF
:1017D00008F00BCE30922B0120922A01C0922601F4
:1017E000D0922701E0922801F092290188E090E050
:1017F00046CD84819581825491098E9708F001CE5F
:101800008F01045C1F4F8DE190E020E030E017CDA8
:10181000D8014D915C91485151094231510510F068
:10182000CB0115CD220F331F07CDD90112964D9153
:101830005C911397495151094331510528F1129692
:101840004D915C911397495051094930510508F069
:10185000F8CDCC0CDD1CEE1CFF1C2C5F3F4F261777
:10186000370709F0E5CD2EE030E030932B012093CF
:101870002A01C0922601D0922701E0922801F0921D
:1018800029018FE090E0FBCCD701C601880F991F9A
:10189000AA1FBB1F6C017D016894C0F8DECF87E0F2
:1018A00090E0EDCCE2E3F1E01382128288EE93E067
:1018B000A0E0B0E084839583A683B78388E091E0BD
:1018C0009183808385EC90E09587848784EC90E019
:1018D0009787868780EC90E0918B808B81EC90E0FD
:1018E000938B828B82EC90E0958B848B86EC90E0DE
:1018F000978B868B118E128E138E148EEFECF1E087
:101900008BE08183138208955058BB27AA270E9439
:101910009C0C0C94160E0E94080E38F00E940F0EBC
:1019200020F039F49F3F19F426F40C94050E0EF4C0
:10193000E095E7FB0C94FF0DE92F0E94270E58F36A
:10194000BA17620773078407950720F079F4A6F5A4
:101950000C94490E0EF4E0950B2EBA2FA02D0B011E
:10196000B90190010C01CA01A0011124FF27591BE4
:1019700099F0593F50F4503E68F11A16F040A22FEA
:10198000232F342F4427585FF3CF4695379527955B
:10199000A795F0405395C9F77EF41F16BA0B620B5A
:1019A000730B840BBAF09150A1F0FF0FBB1F661FA1
:1019B000771F881FC2F70EC0BA0F621F731F841FE4
:1019C00048F4879577956795B795F7959E3F08F00A
:1019D000B0CF9395880F08F09927EE0F97958795CC
:1019E00008950E94DB0D08F481E008950E940A0D1D
:1019F0000C94160E0E940F0E58F00E94080E40F034
:101A000029F45F3F29F00C94FF0D51110C944A0EFC
:101A10000C94050E0E94270E68F39923B1F3552309
:101A200091F3951B550BBB27AA27621773078407F1
:101A300038F09F5F5F4F220F331F441FAA1FA9F387
:101A400035D00E2E3AF0E0E832D091505040E69575
:101A5000001CCAF72BD0FE2F29D0660F771F881FD6
:101A6000BB1F261737074807AB07B0E809F0BB0BC9
:101A7000802DBF01FF2793585F4F3AF09E3F5105DD
:101A800078F00C94FF0D0C944A0E5F3FE4F3983EFF
:101A9000D4F3869577956795B795F7959F5FC9F7C6
:101AA000880F911D9695879597F90895E1E0660F47
:101AB000771F881FBB1F621773078407BA0720F0C0
:101AC000621B730B840BBA0BEE1F88F7E095089529
:101AD0000E946F0D6894B1110C944A0E08950E94F3
:101AE0002F0E88F09F5798F0B92F9927B751B0F073
:101AF000E1F0660F771F881F991F1AF0BA95C9F792
:101B000014C0B13091F00E94490EB1E008950C94D8
:101B1000490E672F782F8827B85F39F0B93FCCF38B
:101B2000869577956795B395D9F73EF4909580950E
:101B3000709561957F4F8F4F9F4F0895E89409C02E
:101B400097FB3EF490958095709561957F4F8F4FF0
:101B50009F4F9923A9F0F92F96E9BB279395F69506
:101B6000879577956795B795F111F8CFFAF4BB0F84
:101B700011F460FF1BC06F5F7F4F8F4F9F4F16C0E8
:101B8000882311F096E911C0772321F09EE8872F72
:101B9000762F05C0662371F096E8862F70E060E02E
:101BA0002AF09A95660F771F881FDAF7880F9695A7
:101BB000879597F90895990F0008550FAA0BE0E84B
:101BC000FEEF16161706E807F907C0F012161306FF
:101BD000E407F50798F0621B730B840B950B39F43F
:101BE0000A2661F0232B242B252B21F408950A26A5
:101BF00009F4A140A6958FEF811D811D089597F9E5
:101C00009F6780E870E060E008959FEF80EC0895A2
:101C100000240A94161617061806090608950024CB
:101C20000A9412161306140605060895092E039445
:101C3000000C11F4882352F0BB0F40F4BF2B11F4B9
:101C400060FF04C06F5F7F4F8F4F9F4F089557FD18
:101C50009058440F551F59F05F3F71F04795880F1A
:101C600097FB991F61F09F3F79F0879508951216B1
:101C700013061406551FF2CF4695F1DF08C016165D
:101C800017061806991FF1CF86957105610508940E
:101C90000895E894BB2766277727CB0197F9089525
:101CA0000E94630E0C94160E0E94080E38F00E94DB
:101CB0000F0E20F0952311F00C94FF0D0C94050EDF
:101CC00011240C944A0E0E94270E70F3959FC1F3C5
:101CD000950F50E0551F629FF001729FBB27F00DDA
:101CE000B11D639FAA27F00DB11DAA1F649F66272F
:101CF000B00DA11D661F829F2227B00DA11D621F7E
:101D0000739FB00DA11D621F839FA00D611D221F37
:101D1000749F3327A00D611D231F849F600D211D1B
:101D2000822F762F6A2F11249F5750409AF0F1F09E
:101D300088234AF0EE0FFF1FBB1F661F771F881F07
:101D400091505040A9F79E3F510580F00C94FF0D33
:101D50000C944A0E5F3FE4F3983ED4F38695779552
:101D60006795B795F795E7959F5FC1F7FE2B880FAD
:101D7000911D9695879597F90895DB018F939F9311
:101D80000E94CD0EBF91AF91A29F800D911DA39F88
:101D9000900DB29F900D112408950E94150FA59FDC
:101DA000900DB49F900DA49F800D911D1124089556
:101DB0000F93083090F0982F872F762F652F542F90
:101DC000432F322F22270850F4CF220F331F441FF6
:101DD000551F661F771F881F991F0A95B2F70F912D
:101DE000089597FB10F8169400080F93083098F0A8
:101DF0000850232F342F452F562F672F782F892FE8
:101E0000902DF4CF0594979587957795679557957D
:101E10004795379527950A95AAF70F910895EE0FE4
:101E2000FF1F0590F491E02D0994A29FB001B39F8C
:101E3000C001A39F700D811D1124911DB29F700DD3
:101E4000811D1124911D089581E090E0F8940C9477
:061E5000290FF894FFCFFA
:101E5600BF01BF010000000023018C00BB006A0126
:081E6600EC00CA00DE000B00D5
:00000001FF
