:100000000C9462000C948A000C948A000C948A0070
:100010000C948A000C948A000C948A000C948A0038
:100020000C948A000C948A000C948A000C948A0028
:100030000C948A000C948A000C948A000C948A0018
:100040000C9441060C948A000C9489030C9463036D
:100050000C948A000C948A000C948A000C948A00F8
:100060000C9414040C948A00000000002500280061
:100070002B0000000000240027002A0000000000E0
:1000800023002600290004040404040404040202DA
:100090000202020203030303030301020408102007
:1000A0004080010204081020010204081020000012
:1000B0000008000201000003040700000000000027
:1000C00000003E0911241FBECFEFD8E0DEBFCDBF38
:1000D00022E0AAE8B1E001C01D92AC3FB207E1F70F
:1000E00011E0A0E0B1E0E8E3F8E102C005900D9274
:1000F000AA38B107D9F710E0C2E6D0E004C02197D2
:10010000FE010E94080AC136D107C9F70E948B067A
:100110000C941A0C0C940000CF92DF92EF92FF9295
:100120000F931F93CF93DF936C017A018B01C0E093
:10013000D0E0CE15DF0589F0D8016D918D01D60193
:10014000ED91FC910190F081E02DC6010995892B7C
:1001500011F47E0102C02196ECCFC701DF91CF914F
:100160001F910F91FF90EF90DF90CF900895FC01C9
:10017000538D448D252F30E0842F90E0821B930B0C
:10018000541710F0CF96089501970895FC01918DB2
:10019000828D981761F0828DDF01A80FB11D5D96E9
:1001A0008C91928D9F5F9F73928F90E008958FEF57
:1001B0009FEF0895FC01918D828D981731F0828D0B
:1001C000E80FF11D858D90E008958FEF9FEF089562
:1001D000FC01918D228D892F90E0805C9F4F821BC6
:1001E00091098F73992708958EE392E00E94E800A9
:1001F00021E0892B09F420E0822F0895FC01848DF1
:10020000DF01A80FB11DA35ABF4F2C91848D90E040
:1002100001968F739927848FA689B7892C93A0891B
:10022000B1898C9180648C93938D848D981306C0D2
:100230000288F389E02D80818F7D80830895EF927D
:10024000FF920F931F93CF93DF93EC0181E0888F90
:100250009B8D8C8D981305C0E889F989808185FD77
:1002600024C0F62E0B8D10E00F5F1F4F0F73112768
:10027000E02E8C8DE8120CC00FB607FCFACFE8898F
:10028000F989808185FFF5CFCE010E94FE00F1CF74
:100290008B8DFE01E80FF11DE35AFF4FF0820B8FAB
:1002A000EA89FB898081806207C0EE89FF896083CB
:1002B000E889F98980818064808381E090E0DF9122
:1002C000CF911F910F91FF90EF900895CF93DF93FF
:1002D000EC01888D8823C9F0EA89FB89808185FD3E
:1002E00005C0A889B9898C9186FD0FC00FB607FC9F
:1002F000F5CF808185FFF2CFA889B9898C9185FFE0
:10030000EDCFCE010E94FE00E7CFDF91CF9108959F
:1003100080E090E0892B29F00E94F40081110C9478
:100320000000089585ED8093BC008091BC0084FDA1
:10033000FCCF1092190208954091AC01262F30E0B5
:10034000240F311D21323105DCF4209119022430B3
:10035000C9F4FC0180E090E0861758F43091AC01BC
:100360002191DC01A657BE4FA30FB11D2C9301961E
:10037000F3CF8091AC01680F6093AC0180E00895E9
:1003800081E0089582E008950895E091D20180917E
:10039000D101E81730F4F0E0ED52FE4F808190E09B
:1003A00008958FEF9FEF08959091D2018091D10130
:1003B000981750F4E92FF0E0ED52FE4F208130E025
:1003C0009F5F9093D20102C02FEF3FEFC9010895C4
:1003D0008091D10190E02091D201821B9109089572
:1003E000CF92DF92EF92FF920F931F93CF93DF9301
:1003F0007C01262F972F8A0180911A02882391F081
:10040000C62FD72F6E01C40ED51ECC15DD0571F099
:100410006991D701ED91FC910190F081E02DC70128
:100420000995F3CF642F822F0E949C01C801DF91B0
:10043000CF911F910F91FF90EF90DF90CF90089593
:10044000CF93DF931F92CDB7DEB7698320911A0255
:100450002223D1F020913D02203240F021E030E013
:10046000FC013383228380E090E015C080911B0261
:10047000E82FF0E0E45EFD4F998190838F5F8093D9
:100480001B0280933D0205C061E0CE0101960E94EF
:100490009C0181E090E00F90DF91CF910895089545
:1004A00080E090E008950E94050C0F931F93CF9376
:1004B000DF93EC0188819981009729F02A813B81A3
:1004C0002617370788F48B016F5F7F4F0E943B0B25
:1004D000009761F0998388831B830A832C813D8177
:1004E000232B11F4FC01108281E001C080E0DF9138
:1004F000CF911F910F910895EF92FF920F931F9349
:10050000CF93DF93FC01248135816115710511F4CE
:1005100080E019C041155105A9F07B01EC018A0169
:10052000020F131FB8010E945502882389F3288106
:1005300039818C819D81B701820F931F0E94130C1A
:100540001D830C8381E0DF91CF911F910F91FF906C
:10055000EF900895CF93DF93EC0188819981009704
:1005600011F00E94A30A198218821D821C821B822C
:100570001A82DF91CF910895CF93DF93EC0161153B
:10058000710561F0FB0101900020E9F73197AF019F
:10059000461B570B0E947C02811103C0CE010E94B2
:1005A000AA02CE01DF91CF910895EF92FF920F93AF
:1005B0001F93CF93DF93FC0111821082138212826A
:1005C000158214828617970739F1DB010D911C9172
:1005D00011970115110501F1EC011496ED90FC90B5
:1005E0001597B7010E945502811109C0CE01DF9114
:1005F000CF911F910F91FF90EF900C94AA02FD8272
:10060000EC82B80188819981DF91CF911F910F9180
:10061000FF90EF900C94130CDF91CF911F910F91ED
:10062000FF90EF900895FC01808191810C94A30AC2
:10063000CF92DF92EF92FF920F931F93CF93DF93AE
:10064000CDB7DEB729970FB6F894DEBF0FBECDBF8A
:100650008C01862FF801118210821382128215827A
:10066000148250E09E012F5F3F4F6901B90190E075
:100670000E949C09F60101900020E9F731977F0163
:10068000EC18FD08B701C8010E945502811104C091
:10069000C8010E94AA0208C0F801F582E482B601EE
:1006A000808191810E94130C29960FB6F894DEBFC9
:1006B0000FBECDBFDF91CF911F910F91FF90EF90B3
:1006C000DF90CF9008951F920F920FB60F921124D2
:1006D0002F933F934F935F936F937F938F939F934A
:1006E000AF93BF93EF93FF938EE392E00E94FE00DF
:1006F000FF91EF91BF91AF919F918F917F916F91FA
:100700005F914F913F912F910F900FBE0F901F90CF
:1007100018951F920F920FB60F9211242F938F935B
:100720009F93EF93FF93E0914E02F0914F028081EF
:10073000E0915402F091550282FD12C090818091A7
:1007400057028F5F8F7320915802821751F0E0910A
:100750005702F0E0E25CFD4F958F8093570201C095
:100760008081FF91EF919F918F912F910F900FBEFC
:100770000F901F901895833081F028F4813099F004
:100780008230A1F008958730A9F08830B9F0843024
:10079000D1F4809180008F7D03C0809180008F779D
:1007A00080938000089584B58F7702C084B58F7DD3
:1007B00084BD08958091B0008F7703C08091B00010
:1007C0008F7D8093B00008951F93CF93DF93282FE0
:1007D00030E0F901E255FF4F8491F901E656FF4FF1
:1007E000D491F901EA57FF4FC491CC23C9F0162FD9
:1007F00081110E94BB03EC2FF0E0EE0FFF1FE859C0
:10080000FF4FA591B4918FB7F894111105C09C9139
:10081000ED2FE095E92302C0EC91ED2BEC938FBF17
:10082000DF91CF911F9108951F920F920FB60F92F3
:1008300011242F933F934F935F936F937F938F93E5
:100840009F93AF93BF93EF93FF938091B900887FFD
:10085000803609F49CC068F5883209F45BC090F4D6
:10086000803109F454C038F4882309F4F6C0883084
:1008700009F44DC0F6C0883109F44CC0803209F447
:100880005DC0EFC0803409F468C048F4803309F4D7
:1008900055C0883309F0E5C080931702D8C0803571
:1008A00009F44FC0883509F45DC0883409F0D9C017
:1008B000D6C0883909F4C7C0A8F4883709F467C0DE
:1008C00038F4883609F463C0803709F460C0C9C0C1
:1008D000883809F4B8C0803909F45FC0803809F05D
:1008E000C0C05BC0803B09F486C038F4803A09F48C
:1008F00066C0883A09F47FC0B4C0803C09F4A7C040
:10090000883C09F4A4C0883B09F48AC0AAC080913D
:10091000F40110C09091160280911502981770F59D
:10092000E091160281E08E0F80931602F0E0EB500A
:10093000FE4F80818093BB0085EC86C080931702B8
:100940008EC0E091160281E08E0F80931602809196
:10095000BB00F0E0EB50FE4F808390911602809137
:1009600015026EC0E091160281E08E0F8093160290
:100970008091BB00F0E0EB50FE4F80838091180225
:1009800081116DC081E08093F30184EA61C083E04E
:10099000809319021092D001CFCF8091D001803284
:1009A00008F051C0E091D00181E08E0F8093D0011A
:1009B0008091BB00F0E0E055FE4F8083BDCF85EC19
:1009C0008093BC00109219028091D001803230F4E3
:1009D000E091D001F0E0E055FE4F10826091D0012F
:1009E00070E0E091AE01F091AF0180EB91E00995EC
:1009F0001092D00136C084E0809319021092AD01AC
:100A00001092AC01E091AA01F091AB01099580919F
:100A1000AC01811105C081E08093AC0110928A0184
:100A2000E091AD0181E08E0F8093AD01F0E0E657DB
:100A3000FE4F80818093BB009091AD018091AC010D
:100A4000981708F479CF85E88093BC000AC085EC3C
:100A50008093BC001092190204C0109217020E94E9
:100A60009201FF91EF91BF91AF919F918F917F91F3
:100A70006F915F914F913F912F910F900FBE0F900B
:100A80001F90189520913D0290913C02213208F070
:100A90004AC0809119028111FCCF32E030931902D3
:100AA00031E0309318023FEF309317021092160294
:100AB00020931502ACE1B2E045EF51E0FA013E2F80
:100AC000341B321718F43D913193F9CF1092F40191
:100AD0002091F401990F922B9093F4019091F301DE
:100AE000913061F41092F3019091F4019093BB0066
:100AF0009091BC0093FDF8CF95EC01C095EE9093DA
:100B0000BC00909119029230E1F3909117029F3F3F
:100B100079F080911702803241F080911702803382
:100B200031F084E005C081E003C082E001C083E0D1
:100B300010921B0210923D0210921A020895682F23
:100B40008BED92E00C942002CF93DF93E0EBF0E08A
:100B50008491ECE9F0E0D491E8E8F0E0C491CC2392
:100B600091F081110E94BB03EC2FF0E0EE0FFF1F0C
:100B7000E458FF4FA591B491EC91ED2381E090E012
:100B800021F480E002C080E090E0DF91CF910895F1
:100B9000FC0144815581608171818EE392E00C9467
:100BA0008C00009769F0FC0101900020E9F7319773
:100BB000AF01481B590BBC018EE392E00C948C00F2
:100BC00080E090E00895909119029111FCCF91E09E
:100BD00090931902909318022FEF2093170210920E
:100BE0001602280F209315029093F4019091F401BE
:100BF000906D9093F4019091F301913061F4109213
:100C0000F3019091F4019093BB009091BC0093FD8F
:100C1000F8CF95EC01C095EE9093BC00909119022D
:100C20009130E1F390911602981710F4809116021A
:100C3000A5EFB1E023ED31E0F9019E2F921B98174B
:100C400018F49D919193F9CF089581E080931A0251
:100C500088E680933C0210921B0210923D0282E0D3
:100C600090E00E949F050E94420581E00E94E305FA
:100C70001092D2018093D1018BED92E00E94D401B9
:100C800008951F920F920FB60F9211242F933F9346
:100C90008F939F93AF93BF938091F4029091F5024D
:100CA000A091F602B091F7023091F30223E0230FF6
:100CB0002D3720F40196A11DB11D05C026E8230F94
:100CC0000296A11DB11D2093F3028093F40290932C
:100CD000F502A093F602B093F7028091EF02909193
:100CE000F002A091F102B091F2020196A11DB11D96
:100CF0008093EF029093F002A093F102B093F2027E
:100D0000BF91AF919F918F913F912F910F900FBE07
:100D10000F901F901895CF93DF93CDB7DEB76397F1
:100D20000FB6F894DEBF0FBECDBF789484B5826055
:100D300084BD84B5816084BD85B5826085BD85B57F
:100D4000816085BD80916E00816080936E001092FD
:100D50008100809181008260809381008091810078
:100D60008160809381008091800081608093800009
:100D70008091B10084608093B1008091B000816067
:100D80008093B00080917A00846080937A00809193
:100D90007A00826080937A0080917A0081608093EB
:100DA0007A0080917A00806880937A001092C10066
:100DB000E0914E02F0914F0282E08083E0914A027E
:100DC000F0914B021082E0914C02F0914D028FECB9
:100DD000808310925602E0915202F091530286E015
:100DE0008083E0915002F091510280818061808384
:100DF000E0915002F0915102808188608083E091FF
:100E00005002F0915102808180688083E09150020D
:100E1000F091510280818F7D8083ECE9F0E0249194
:100E2000E8E8F0E084918823C9F090E0880F991FEA
:100E3000FC01EE58FF4F45915491FC01E859FF4FDA
:100E4000A591B4919FB7F894FA013081822F8095D3
:100E500083238083EC91E22BEC939FBFE7EAF0E0E1
:100E60002491E3E9F0E08491882399F090E0880FE1
:100E7000991FFC01EE58FF4FA591B491FC01E85970
:100E8000FF4F859194918FB7F894EC91E22BEC93FE
:100E90008FBF0E94A405682F8DE00E94E40310928A
:100EA000D2011092D10110921B0210923D021092B9
:100EB000190211E0109318021092F30161E082E12F
:100EC0000E94E40361E083E10E94E4038091B900A1
:100ED0008E7F8093B9008091B9008D7F8093B90097
:100EE00088E48093B80085E48093BC0010931A02D4
:100EF00008E600933C0210921B0210923D0287E02C
:100F000090E00E949F0560E18BED92E00E9420023C
:100F10000E94420580E48093E70280E58093E80226
:100F200087E18093E9021093EA0295E19093EB0246
:100F300090E19093EC028093ED0210931A020093DB
:100F40003C0210921B0210923D0280E090E00E9451
:100F50009F0507EE12E0D8016D918D018BED92E0B7
:100F60000E942002B2E00E3E1B07A9F70E94420534
:100F7000FF24F39498E6E92E8E01085F1F4FF0924C
:100F80001A02E0923C0210921B0210923D0280E095
:100F900090E00E949F050E94420587E00E94E305C1
:100FA0001092D2018093D101FE0131966F015F0151
:100FB0008BED92E00E94D401D5018D935D01A017C5
:100FC000B107B1F7E7EEF2E0D6018D916D018193A3
:100FD000A017B107C9F78091E702282F2F77209338
:100FE000E7029091E90296FF0AC095FF03C0F092D4
:100FF000EE0202C01092EE029F719093E9022295D8
:101000002F708F70BAE02B9F800D112490E02091FB
:101010000001022E000C330B8217930709F425C13F
:101020006091E902862F82958F706F70EAE08E9F43
:10103000600D11244AE0C8010E941803B801CE01D6
:1010400001960E94D50269E371E0CE0101960E94EB
:10105000BC020E94C805CE0101960E941303C8017C
:101060000E9413038091E802982F92959F708F70D1
:10107000FAE09F9F800D11248A3058F4E0913E02DF
:10108000F0913F020190F081E02D60E38EE392E069
:1010900009956091E802862F82958F706F702AE023
:1010A000829F600D11244AE0C8010E941803B80114
:1010B000CE0101960E94D50269E371E0CE0101964E
:1010C0000E94BC020E94C805CE0101960E94130333
:1010D000C8010E9413038091E702982F92959F7098
:1010E0008F70AAE09A9F800D11248A3058F4E09105
:1010F0003E02F0913F020190F081E02D60E38EE32B
:1011000092E009956091E702862F82958F706F704B
:10111000BAE08B9F600D11244AE0CE0101960E9437
:101120001803CE0101960E94C805CE0101960E94C7
:1011300013030E94250686FF0BC00E94250685FF2B
:1011400003C08BE391E002C08FE391E00E94D105E0
:1011500083E491E00E94D105E091EA028E2F82950E
:101160008F70EF70FAE08F9FE00D1124F0E0EE0F2A
:10117000FF1FEB5FFE4F808191810E94D10587E4C4
:1011800091E00E94D1056091EB02862F82958F70CD
:101190006F702AE0829F600D11244AE0CE01019613
:1011A0000E9418036091EC02862F82958F706F70F9
:1011B0009AE0899F600D11244AE0CE010E960E94AC
:1011C0001803BE01625F7F4FC8010E94D5026BE425
:1011D00071E0C8010E94BC026C014D815E81698191
:1011E0007A810E947C02811103C0C6010E94AA027A
:1011F0006BE471E0C6010E94BC020E94C805C801F0
:101200000E941303CE010E960E941303CE01019695
:101210000E9413036091ED02862F82958F706F708C
:10122000AAE08A9F600D11244AE0CE0101960E9437
:101230001803CE0101960E94C80542E050E06DE41B
:1012400071E08EE392E00E948C00CE0101960E9434
:1012500013038091E702982F92959F708F70BAE0E8
:101260009B9F800D1124809300010E94A405682F8C
:101270008DE00E94E4030E94880181CE1092410219
:101280001092400288EE93E0A0E0B0E0809342022A
:1012900090934302A0934402B093450229E131E0C8
:1012A00030933F0220933E0225EC30E030934B0216
:1012B00020934A0224EC30E030934D0220934C02FC
:1012C00020EC30E030934F0220934E0221EC30E0CE
:1012D000309351022093500222EC30E030935302BD
:1012E0002093520226EC30E03093550220935402B2
:1012F00010925702109258021092590210925A02FC
:101300001092DE021092DD028093DF029093E002E1
:10131000A093E102B093E2028BE291E09093DC02B1
:101320008093DB02E7EEF2E0119282E0EE3EF807F6
:10133000D9F71092EE0208954532510520F442305B
:1013400010F00C94A709FB011082CB010895BB2774
:10135000FB015527AA27880F991FAA1FA41710F071
:10136000A41B83955051B9F7A05DAA3308F0A95D7D
:10137000A193009779F7B111B1931192CB010C941D
:10138000C109DC01FC01672F71917723E1F73297E6
:1013900004C07C916D9370836291AE17BF07C8F350
:1013A00008952F923F924F925F926F927F928F9209
:1013B0009F92AF92BF92CF92DF92EF92FF920F93E4
:1013C0001F93CF93DF93CDB7DEB7CA1BDB0B0FB6EE
:1013D000F894DEBF0FBECDBF09942A8839884888AB
:1013E0005F846E847D848C849B84AA84B984C88441
:1013F000DF80EE80FD800C811B81AA81B981CE0F38
:10140000D11D0FB6F894DEBF0FBECDBFED0108951C
:10141000EE0FFF1F0590F491E02D0994CF93DF9319
:101420008230910510F482E090E0E091FA02F091B0
:10143000FB0220E030E0C0E0D0E0309711F14081C5
:10144000518148175907C0F04817590761F4828144
:101450009381209719F09B838A832BC09093FB0282
:101460008093FA0226C02115310519F0421753075F
:1014700018F49A01BE01DF01EF010280F381E02D33
:10148000DCCF2115310509F1281B390B243031053A
:1014900090F412968D919C9113976115710521F02E
:1014A000FB019383828304C09093FB028093FA0232
:1014B000FD01329644C0FD01E20FF31F8193919329
:1014C000225031092D933C933AC02091F80230917B
:1014D000F902232B41F42091030130910401309350
:1014E000F9022093F80220910101309102012115A7
:1014F000310541F42DB73EB74091050150910601E9
:10150000241B350BE091F802F091F902E217F30782
:10151000A0F42E1B3F0B2817390778F0AC014E5F63
:101520005F4F2417350748F04E0F5F1F5093F902A5
:101530004093F8028193919302C0E0E0F0E0CF0184
:10154000DF91CF9108950F931F93CF93DF9300976F
:1015500009F48CC0FC013297138212820091FA02C6
:101560001091FB020115110581F420813181820F58
:10157000931F2091F8023091F9022817390779F565
:10158000F093F902E093F80271C0D80140E050E016
:10159000AE17BF0750F412962D913C911397AD01F1
:1015A0002115310509F1D901F3CF9D01DA0133830A
:1015B000228360817181860F971F8217930769F4D8
:1015C000EC0128813981260F371F2E5F3F4F318371
:1015D00020838A819B8193838283452B29F4F09316
:1015E000FB02E093FA0242C01396FC93EE9312972B
:1015F000ED01499159919E01240F351FE217F30720
:1016000071F480819181840F951F029611969C93AD
:101610008E938281938113969C938E931297E0E030
:10162000F0E0D80112968D919C911397009719F0D4
:10163000F8018C01F6CF8D919C9198012E5F3F4F60
:10164000820F931F2091F8023091F9022817390771
:1016500069F4309729F41092FB021092FA0202C04A
:10166000138212821093F9020093F802DF91CF9156
:101670001F910F910895A0E0B0E0E1E4FBE00C942D
:10168000D509EC01009721F4CB010E940E0AB8C0E5
:10169000FC01E60FF71F9C0122503109E217F30706
:1016A00008F4ACC0D9010D911C91119706171707CA
:1016B000B0F00530110508F49FC0C80104978617E3
:1016C000970708F499C002501109061B170B0193E4
:1016D00011936D937C93CF010E94A30A8DC05B018F
:1016E000A01AB10A4C01800E911EA091FA02B0918D
:1016F000FB0240E050E0E12CF12C109709F44AC0C5
:10170000A815B905D1F56D907C901197630182E021
:10171000C80ED11CCA14DB0480F1A3014A195B096D
:101720006A0182E0C80ED11C1296BC9012971396E3
:10173000AC91B5E0CB16D10440F0B282A3835183C3
:101740004083D9016D937C930AC00E5F1F4FC30184
:10175000800F911FF90191838083EB2DFA2FE11403
:10176000F10431F0D7011396FC93EE93129744C025
:10177000F093FB02E093FA023FC08D919C91119788
:101780004817590708F4AC017D0112960D90BC91E1
:10179000A02DB3CF8091F8029091F9028815990598
:1017A000E1F446175707C8F48091010190910201B6
:1017B000009741F48DB79EB7409105015091060105
:1017C000841B950BE817F907C8F4F093F902E0932E
:1017D000F802F901718360830FC0CB010E940E0AE9
:1017E0007C01009759F0A801BE010E940A0CCE01AD
:1017F0000E94A30AC70104C0CE0102C080E090E0AD
:10180000CDB7DEB7EEE00C94F10981E090E0F894FA
:101810000C941A0CFB01DC0102C001900D924150A6
:101820005040D8F70895FB01DC0101900D92002093
:08183000E1F70895F894FFCFE1
:10183800FF0000FC028000500157015E0166017044
:101848000179018001000000001F018C00B70066CB
:1018580001E800C600DA00000000002002F0015094
:1018680002C401E801D401C5013A0020504D00200E
:10187800414D00207C2000202D20002F000D0A0063
:1018880053756E646179004D6F6E646179005475AB
:101898006573646179005765646E65736461790086
:1018A800546875727364617900467269646179007D
:0A18B80053617475726461790000D9
:00000001FF
