:100000000C947B000C94A3000C94A3000C94A3000C
:100010000C94A3000C94A3000C94A3000C94A300D4
:100020000C94A3000C94A3000C94A3000C94A300C4
:100030000C94A3000C94A3000C94A3000C94A300B4
:100040000C9402050C94A3000C94D0040C94AA0404
:100050000C94A3000C94A3000C94A3000C94A30094
:100060000C94A3000C94A300A903A703A903AB035A
:10007000AD03AD03B103AF03BE03BE03BE03BE03B6
:10008000B303BE03BE03BE03B503BE03B503BA0389
:10009000B103BE03BE03C003C2030000000023007F
:1000A0002600290000000000250028002B00000089
:1000B0000008000201000003040700000000000027
:1000C000000000000000240027002A0001020408AC
:1000D00010204080010204081020010204081020B2
:1000E00004040404040404040202020202020303DE
:1000F000030303034C0511241FBECFEFD8E0DEBF7E
:10010000CDBF11E0A0E0B1E0E2E3F3E102C0059071
:100110000D92A432B107D9F721E0A4E2B1E001C009
:100120001D92A83DB207E1F710E0CBE7D0E004C094
:100130002197FE010E948C09CA37D107C9F70E9496
:1001400096050C9497090C940000CF92DF92EF92E1
:10015000FF920F931F93CF93DF936C017A018B0172
:10016000C0E0D0E0CE15DF0589F0D8016D918D019A
:10017000D601ED91FC910190F081E02DC601099529
:10018000892B11F47E0102C02196ECCFC701DF91CB
:10019000CF911F910F91FF90EF90DF90CF90089536
:1001A000089580E090E00895FC01538D448D252F43
:1001B00030E0842F90E0821B930B541710F0CF9601
:1001C000089501970895FC01918D828D981761F033
:1001D000828DDF01A80FB11D5D968C91928D9F5F7E
:1001E0009F73928F90E008958FEF9FEF0895FC0129
:1001F000918D828D981731F0828DE80FF11D858DDC
:1002000090E008958FEF9FEF0895FC01918D228D6E
:10021000892F90E0805C9F4F821B91098F739927F3
:1002200008958EE291E00E94050121E0892B09F4F6
:1002300020E0822F0895FC01848DDF01A80FB11DFD
:10024000A35ABF4F2C91848D90E001968F7399270C
:10025000848FA689B7892C93A089B1898C918064F9
:100260008C93938D848D981306C00288F389E02DBA
:1002700080818F7D80830895EF92FF920F931F936B
:10028000CF93DF93EC0181E0888F9B8D8C8D981349
:1002900005C0E889F989808185FD24C0F62E0B8D83
:1002A00010E00F5F1F4F0F731127E02E8C8DE812A7
:1002B0000CC00FB607FCFACFE889F989808185FF69
:1002C000F5CFCE010E941B01F1CF8B8DFE01E80F0F
:1002D000F11DE35AFF4FF0820B8FEA89FB89808181
:1002E000806207C0EE89FF896083E889F98980818F
:1002F0008064808381E090E0DF91CF911F910F9126
:10030000FF90EF900895CF93DF93EC01888D8823C1
:10031000C9F0EA89FB89808185FD05C0A889B98972
:100320008C9186FD0FC00FB607FCF5CF808185FF4D
:10033000F2CFA889B9898C9185FFEDCFCE010E94BB
:100340001B01E7CFDF91CF91089580E090E0892BEA
:1003500029F00E94110181110C940000089583304E
:1003600081F028F4813099F08230A1F0089587302F
:10037000A9F08830B9F08430D1F4809180008F7D6D
:1003800003C0809180008F7780938000089584B5AA
:100390008F7702C084B58F7D84BD08958091B000B1
:1003A0008F7703C08091B0008F7D8093B000089557
:1003B0001F93CF93DF93282F30E0F901E255FF4FD1
:1003C0008491F901E453FF4FD491F901E052FF4FBA
:1003D000C491CC23C9F0162F81110E94AF01EC2FDC
:1003E000F0E0EE0FFF1FEC55FF4FA591B4918FB7D2
:1003F000F894111105C09C91ED2FE095E92302C0FE
:10040000EC91ED2BEC938FBFDF91CF911F9108956D
:10041000CF93DF9390E0FC01E453FF4F2491FC0164
:10042000E052FF4F8491882361F190E0880F991F7B
:10043000FC01EE53FF4FC591D491FC01EC55FF4FE9
:10044000A591B491611109C09FB7F8948881209556
:1004500082238883EC912E230BC0623061F49FB716
:10046000F8943881822F809583238883EC912E2BFA
:100470002C939FBF06C08FB7F894E8812E2B28835A
:100480008FBFDF91CF9108953FB7F89480912901F4
:1004900090912A01A0912B01B0912C0126B5A89B27
:1004A00005C02F3F19F00196A11DB11D3FBFBA2F06
:1004B000A92F982F8827820F911DA11DB11DBC0166
:1004C000CD0142E0660F771F881F991F4A95D1F72B
:1004D00008958F929F92AF92BF92CF92DF92EF9248
:1004E000FF926B017C010E9444024B015C01C1142C
:1004F000D104E104F104F1F00E944402DC01CB01DB
:1005000088199909AA09BB09883E9340A105B1053C
:1005100070F321E0C21AD108E108F10888EE880ED4
:1005200083E0981EA11CB11CC114D104E104F104A4
:1005300019F7DDCFFF90EF90DF90CF90BF90AF9095
:100540009F908F900895CF92DF92EF92FF920F933A
:100550001F93CF93DF93CDB7DEB7EDB6FEB62091F4
:10056000CC013091CD014DB75EB7421B530B0FB696
:10057000F8945EBF0FBE4DBF0DB71EB70F5F1F4F84
:100580006801F801AF01401B510B4217530714F4E7
:100590001192F8CFE091D401F091D501E00FF11F55
:1005A000808360E08091CE010E94D8018CE58CBDF3
:1005B0001DBC8091CC019091CD010097E1F0F80134
:1005C00021912EBD9801280F391FE217F30751F032
:1005D00051910DB407FEFDCF4EB55EBDD6014D93D2
:1005E0006D01F3CF0197F801E80FF91F0DB407FE75
:1005F000FDCF8EB5808361E08091CE010E94D8014D
:100600008091D4019091D501F801E80FF91F808104
:100610000FB6F894FEBE0FBEEDBEDF91CF911F91D5
:100620000F91FF90EF90DF90CF9008952F923F921F
:100630004F925F926F927F928F929F92AF92BF92F2
:10064000CF92DF92EF92FF920F931F93CF93DF939E
:1006500000D01F92CDB7DEB72B013C01942F9695A9
:1006600096959695842F877009F09F5F692F70E0AB
:100670001B0193E0220C331C9A95E1F7C12CD12C7D
:10068000E12CF12C00E010E0980188E0C81AD108B4
:10069000E616F7060CF58824902EA12EB22EC10185
:1006A0008C0D9D1D9301820104C0369527951795E9
:1006B00007958A95D2F7D901C80149836A837B835C
:1006C0000E94A30295018401082B8FEFE81AF80A13
:1006D0007B816A814981D9CF80E290E0BC01641BB3
:1006E00071098FEF9FEFDC0104C0B695A795979530
:1006F00087956A95D2F7BC01CD01602371238223CF
:1007000093230F900F900F90DF91CF911F910F9136
:10071000FF90EF90DF90CF90BF90AF909F908F9021
:100720007F906F905F904F903F902F9008950F9320
:100730001F93E82FCB01BA010E2F10E0F80131977B
:10074000E931F10538F5EC5CFF4F0C948C0949E078
:100750001DC046E11BC044E116C04CE017C04DE08F
:1007600015C04AE013C04EE011C06F70772788278C
:10077000992704C06F7777278827992748E006C014
:1007800040E104C040E160E070E0CB011F910F91B7
:100790000C941603862F0E94A30260E070E0CB0148
:1007A0001F910F910895CF93C82F80620E94A302DA
:1007B00040E050E0BA018C2FCF910C949703CF9278
:1007C000DF92EF92FF92CF93DF9300D000D0CDB7AE
:1007D000DEB76A017B0180650E94A30226E436E34E
:1007E00046E852E4C701B6010E94F7080E94620879
:1007F000462F572FBC014115510580E1680771054F
:1008000020F04FEF5FEF6FE070E049835A836B8316
:100810007C838B810E94A3028A810E94A30289812A
:100820000F900F900F900F90DF91CF91FF90EF906E
:10083000DF90CF900C94A3021F93CF93DF9300D04F
:1008400000D0CDB7DEB7182F49835A836B837C83E2
:100850000E94A30249815A816B817C81812F0F9074
:100860000F900F900F90DF91CF911F910C949703F1
:100870000F931F93CF93DF938B01C0910001D09111
:100880000101C130D10589F4BC0197FF02C06F5F3F
:100890007F4F75956795072E000C880B990B0E946A
:1008A0009308AB01BC0181E011C09C0197FF02C01D
:1008B0002F5F3F4FB90175956795072E000C880B88
:1008C000990B0E949308AB01BC0180E00E94DF03FA
:1008D000B801110F880B990B0E946902D195C1953F
:1008E000D109D0930101C093000180EB0E94A302C3
:1008F0002091D2013091D3012F3F8FEF380731F48F
:1009000089E10E94D30361FFF3CF1DC03327F901B2
:10091000E255FF4F8491F901E453FF4FD491F9015F
:10092000E052FF4FC491CC2319F381110E94AF0113
:10093000EC2FF0E0EE0FFF1FE656FF4FA591B491AC
:10094000EC91ED23A9F2DF91CF911F910F910895C2
:100950000E9492091F920F920FB60F9211242F93AB
:100960003F934F935F936F937F938F939F93AF9337
:10097000BF93EF93FF938EE291E00E941B01FF91E2
:10098000EF91BF91AF919F918F917F916F915F9107
:100990004F913F912F910F900FBE0F901F90189580
:1009A0001F920F920FB60F9211242F938F939F9344
:1009B000EF93FF93E0913E01F0913F018081E09140
:1009C0004401F091450182FD12C090818091470160
:1009D0008F5F8F7320914801821751F0E09147019A
:1009E000F0E0E25DFE4F958F8093470101C080816A
:1009F000FF91EF919F918F912F910F900FBE0F90CC
:100A00001F9018951F920F920FB60F9211242F93DB
:100A10003F938F939F93AF93BF93809125019091C4
:100A20002601A0912701B09128013091240123E0F3
:100A3000230F2D3720F40196A11DB11D05C026E816
:100A4000230F0296A11DB11D20932401809325013F
:100A500090932601A0932701B0932801809129014A
:100A600090912A01A0912B01B0912C010196A11D1A
:100A7000B11D8093290190932A01A0932B01B0937B
:100A80002C01BF91AF919F918F913F912F910F902A
:100A90000FBE0F901F901895EEE2F1E013821282C4
:100AA00088EE93E0A0E0B0E084839583A683B783CB
:100AB00086E091E09183808385EC90E09587848740
:100AC00084EC90E09787868780EC90E0918B808B18
:100AD00081EC90E0938B828B82EC90E0958B848B01
:100AE00086EC90E0978B868B118E128E138E148E6F
:100AF000EEECF1E08AE090E0918380831782168229
:100B000086E090E0938382838FEF9FEF95838483C9
:100B10008091CC019091CD0101969093CD0180936D
:100B2000CC018BEC91E0918780870895789484B50F
:100B3000826084BD84B5816084BD85B5826085BDD9
:100B400085B5816085BD80916E00816080936E0067
:100B50001092810080918100826080938100809159
:100B6000810081608093810080918000816080930A
:100B700080008091B10084608093B1008091B000CA
:100B800081608093B00080917A00846080937A00C5
:100B900080917A00826080937A0080917A008160EF
:100BA00080937A0080917A00806880937A00109216
:100BB000C100E0913E01F0913F0182E08083E0912D
:100BC0003A01F0913B011082E0913C01F0913D012E
:100BD0008FEC808310924601E0914201F091430135
:100BE00086E08083E0914001F09141018081806145
:100BF0008083E0914001F091410180818860808391
:100C0000E0914001F0914101808180688083E09112
:100C10004001F091410180818F7D80834BE050E065
:100C200064E171E08EE291E00E94A50042E050E0B4
:100C300060E271E08EE291E00E94A50061E086E052
:100C40000E94080261E08BE00E94080260E08CE0F4
:100C50000E94080261E08DE00E94080261E08AE0E3
:100C60000E94080261E08AE00E94D80160E086E00C
:100C70000E94D80161E086E00E94D801CFB7F894C5
:100C800080912D01811127C0EAEEF0E08491E6ED1C
:100C9000F0E09491E82FF0E0EE0FFF1FEE53FF4FCE
:100CA000A591B491EC91E92321F461E08AE00E94DE
:100CB000D80161E08AE00E9408028CB580618CBD99
:100CC0008CB580648CBD61E08DE00E94080261E01B
:100CD0008BE00E94080280912D018F5F80932D018F
:100CE000CFBF8CB58C608CBD8BEC91E09093D7011D
:100CF0008093D60186E10E94D303462F4F7050E0C7
:100D000060E070E086E10E941C0486E10E94D3034B
:100D1000462F487F50E060E070E086E10E941C04AE
:100D200040E952E060E070E087E00E941C044EE879
:100D300052E060E070E085E10E941C044EE555E061
:100D400060E070E085E00E941C044EE555E060E044
:100D500070E086E00E941C0488E10E94D303AB018E
:100D6000BC01536088E10E941C0441E050E060E057
:100D700070E083E10E941C0488E10E94D303AB0170
:100D8000BC015370662777275C6388E10E941C04CE
:100D900088E10E94D303AB01BC014F7788E10E9438
:100DA0001C0488E10E94D303AB01BC014F7D88E1A4
:100DB0000E941C0488E10E94D303AB01BC01406186
:100DC00088E10E941C0488E10E94D303AB01BC01AE
:100DD000407F4D6088E10E941C0440E850E060E0E4
:100DE00070E08BE00E941C0440E850E060E070E09E
:100DF0008CE00E941C0440E850E060E070E08AE073
:100E00000E941C0440E250E060E070E089E00E9433
:100E10001C046CE271E080E090E00E9469026CE2E8
:100E200071E083E992E00E9438046CE271E080E7AF
:100E300093E00E9438046CE271E08CED93E00E9434
:100E4000380462EC71E085E594E00E94380466E9BC
:100E500070E087E994E00E94380468E572E085E577
:100E600094E00E9438046CE271E080E090E00E941F
:100E700069026CE271E080E793E00E9438046CE262
:100E800071E080E793E00E9438046CE271E083E94E
:100E900092E00E9438046CE271E08CED93E00E94D5
:100EA00038046CE271E080E793E00E9438046CE261
:100EB00071E080E193E00E9438046CE271E080E729
:100EC00093E00E94380462EC71E080E090E00E94C0
:100ED000690266E970E083E992E00E9438046CE2FE
:100EE00071E080E793E00E9438046CE271E08CEDE1
:100EF00093E00E9438046CE271E085E594E00E9482
:100F000038046CE271E087E994E00E9438046CE2F6
:100F100071E085E594E00E9438046CE271E08CEDAC
:100F200093E00E94380468E572E080E793E00E9455
:100F300038046CE271E08CED93E00E9438046CE2BE
:100F400071E080E193E00E94380468E572E080E19E
:100F500093E00E94380460EB74E080E090E00E942F
:100F600069026CE271E080E090E00E9469026CE24C
:100F700071E083E992E00E9438046CE271E080E75E
:100F800093E00E9438046CE271E08CED93E00E94E3
:100F9000380462EC71E085E594E00E94380466E96B
:100FA00070E087E994E00E94380468E572E085E526
:100FB00094E00E9438046CE271E080E090E00E94CE
:100FC00069026CE271E080E793E00E9438046CE211
:100FD00071E080E793E00E9438046CE271E083E9FD
:100FE00092E00E9438046CE271E08CED93E00E9484
:100FF00038046CE271E080E793E00E9438046CE210
:1010000071E080E193E00E9438046CE271E080E7D7
:1010100093E00E9438046CE271E080E090E00E946E
:1010200069026CE271E083E992E00E9438046CE2AC
:1010300071E080E793E00E9438046CE271E08CED8F
:1010400093E00E9438046CE271E085E594E00E9430
:1010500038046CE271E087E994E00E9438046CE2A5
:1010600071E085E594E00E9438046CE271E08CED5B
:1010700093E00E94380468E572E080E793E00E9404
:10108000380468E572E088EC95E00E9438046CE270
:1010900071E087E295E00E9438046CE271E085E53A
:1010A00094E00E9438046CE271E08CED93E00E94C1
:1010B000380462EC71E084EA93E00E9438040E94F4
:1010C000A501A7CE0E94D60888F09F5798F0B92FA7
:1010D0009927B751B0F0E1F0660F771F881F991F6D
:1010E0001AF0BA95C9F714C0B13091F00E94F00817
:1010F000B1E008950C94F008672F782F8827B85F27
:1011000039F0B93FCCF3869577956795B395D9F7C4
:101110003EF490958095709561957F4F8F4F9F4FCE
:101120000895E89409C097FB3EF4909580957095DA
:1011300061957F4F8F4F9F4F9923A9F0F92F96E923
:10114000BB279395F695879577956795B795F11198
:10115000F8CFFAF4BB0F11F460FF1BC06F5F7F4F35
:101160008F4F9F4F16C0882311F096E911C0772347
:1011700021F09EE8872F762F05C0662371F096E850
:10118000862F70E060E02AF09A95660F771F881F1F
:10119000DAF7880F9695879597F9089557FD905837
:1011A000440F551F59F05F3F71F04795880F97FB2B
:1011B000991F61F09F3F79F08795089512161306E5
:1011C0001406551FF2CF4695F1DF08C01616170614
:1011D0001806991FF1CF8695710561050894089549
:1011E000E894BB2766277727CB0197F908950E94DB
:1011F0000A090C947B090E946D0938F00E94740959
:1012000020F0952311F00C9464090C946A091124C0
:101210000C94F1080E94CE0870F3959FC1F3950FCE
:1012200050E0551F629FF001729FBB27F00DB11D6A
:10123000639FAA27F00DB11DAA1F649F6627B00DFA
:10124000A11D661F829F2227B00DA11D621F739FE3
:10125000B00DA11D621F839FA00D611D221F749FF1
:101260003327A00D611D231F849F600D211D822F38
:10127000762F6A2F11249F5750409AF0F1F088235F
:101280004AF0EE0FFF1FBB1F661F771F881F91508C
:101290005040A9F79E3F510580F00C9464090C94CE
:1012A000F1085F3FE4F3983ED4F386957795679510
:1012B000B795F795E7959F5FC1F7FE2B880F911DB6
:1012C0009695879597F9089597F99F6780E870E05C
:1012D00060E008959FEF80EC089500240A941616AC
:1012E000170618060906089500240A941216130614
:1012F000140605060895092E0394000C11F48823A2
:1013000052F0BB0F40F4BF2B11F460FF04C06F5FBD
:101310007F4F8F4F9F4F0895EE0FFF1F0590F49161
:10132000E02D099481E090E0F8940C949709F894EA
:02133000FFCFED
:101332000100000000003C01A500D400830105016A
:10134200E300F70048656C6C6F20776F726C640085
:041352000D0A000080
:00000001FF
